:020000040800F2
:10B000000050002089BB0008D1BB0008F9B100083E
:10B01000D1BB0008D1BB0008D1BB00080000000074
:10B02000000000000000000000000000D1BB00088C
:10B03000D1BB0008000000007FB1000811BD00086E
:10B04000D1BB0008D1BB0008D1BB0008D1BB0008B0
:10B05000D1BB0008D1BB0008D1BB0008D1BB0008A0
:10B06000D1BB0008D1BB0008D1BB0008D1BB000890
:10B07000D1BB0008D1BB0008D1BB0008D1BB000880
:10B08000D1BB0008D1BB0008D1BB0008D1BB000870
:10B09000D1BB0008D1BB0008D1BB0008D1BB000860
:10B0A000D1BB0008D1BB0008D1BB0008D1BB000850
:10B0B000D1BB0008D1BB0008D1BB0008D1BB000840
:10B0C000D1BB0008D1BB0008D1BB0008D1BB000830
:10B0D000D1BB0008D1BB0008D1BB0008D1BB000820
:10B0E000D1BB0008D1BB0008D1BB000800000000A4
:10B0F0000000000000000000000000000000000050
:0CB1000000000000000000005FF808F1F3
:10B1100010B5054C237833B9044B13B10448AFF391
:10B1200000800123237010BD1402002000000000E5
:10B130007019010808B5034B1BB103490348AFF36D
:10B14000008008BD000000001802002070190108EE
:10B15000EFF3108072B6704780F310887047354A5D
:10B160001368012B04D04FF001031360324A1060C2
:10B17000324A116032484FF0805101607047EFF35E
:10B18000108272B62B48016891B14FF00001016046
:10B190002948016829B1EFF3098121E9F00F00681E
:10B1A0000160264909680968B1E8F00F81F3098850
:10B1B00082F310884EF0040E7047204908601E4943
:10B1C0004FF0000008601B494FF0010008601D4867
:10B1D0001D49D0F8002041EA0201016018484FF0F3
:10B1E0008051016019480068006800BF80F308883A
:10B1F00061B662B6704700BFEFF308801EF0040F1F
:10B2000001D0EFF3098020E9F00F40F804ED1EF0C3
:10B21000040F02D080F3098801E080F3088800B5AC
:10B2200002F0AAFE5DF804EB4EF0040E7047EFF357
:10B2300005807047E0250020D8250020DC2500206F
:10B2400004ED00E020ED00E00000FFFF08ED00E06D
:10B25000034613F8012B002AFBD1181A0138704756
:10B2600081F0004102E000BF83F0004330B54FEAB7
:10B2700041044FEA430594EA050F08BF90EA020F24
:10B280001FBF54EA000C55EA020C7FEA645C7FEAB7
:10B29000655C00F0E2804FEA5454D4EB5555B8BFDA
:10B2A0006D420CDD2C4480EA020281EA030382EA4B
:10B2B000000083EA010180EA020281EA0303362DDD
:10B2C00088BF30BD11F0004F4FEA01314FF4801CB0
:10B2D0004CEA113102D0404261EB410113F0004FC2
:10B2E0004FEA03334CEA133302D0524263EB430379
:10B2F00094EA050F00F0A780A4F10104D5F1200E17
:10B300000DDB02FA0EFC22FA05F2801841F1000171
:10B3100003FA0EF2801843FA05F359410EE0A5F145
:10B3200020050EF1200E012A03FA0EFC28BF4CF076
:10B33000020C43FA05F3C01851EBE37101F000452C
:10B3400007D54FF0000EDCF1000C7EEB00006EEB39
:10B350000101B1F5801F1BD3B1F5001F0CD34908C3
:10B360005FEA30004FEA3C0C04F101044FEA44521A
:10B3700012F5800F80F09A80BCF1004F08BF5FEAA1
:10B38000500C50F1000041EB045141EA050130BD81
:10B390005FEA4C0C404141EB0101013C28BFB1F593
:10B3A000801FE9D291F0000F04BF01460020B1FADE
:10B3B00081F308BF2033A3F10B03B3F120020CDAB1
:10B3C0000C3208DD02F1140CC2F10C0201FA0CF08F
:10B3D00021FA02F10CE002F11402D8BFC2F1200CF4
:10B3E00001FA02F120FA0CFCDCBF41EA0C019040AA
:10B3F000E41AA2BF01EB0451294330BD6FEA0404F3
:10B400001F3C1CDA0C340EDC04F11404C4F12002DD
:10B4100020FA04F001FA02F340EA030021FA04F3EF
:10B4200045EA030130BDC4F10C04C4F1200220FA46
:10B4300002F001FA04F340EA0300294630BD21FA84
:10B4400004F0294630BD94F0000F83F4801306BF4A
:10B4500081F480110134013D4EE77FEA645C18BF3E
:10B460007FEA655C29D094EA050F08BF90EA020FD5
:10B4700005D054EA000C04BF1946104630BD91EACD
:10B48000030F1EBF0021002030BD5FEA545C05D1D0
:10B490004000494128BF41F0004130BD14F580040F
:10B4A0003CBF01F5801130BD01F0004545F0FE4183
:10B4B00041F470014FF0000030BD7FEA645C1ABFB8
:10B4C000194610467FEA655C1CBF0B46024650EAEF
:10B4D000013406BF52EA033591EA030F41F400211B
:10B4E00030BD00BF90F0000F04BF0021704730B5A1
:10B4F0004FF4806404F132044FF000054FF0000176
:10B5000050E700BF90F0000F04BF0021704730B536
:10B510004FF4806404F1320410F0004548BF40420B
:10B520004FF000013EE700BF42004FEAE2014FEA60
:10B5300031014FEA02701FBF12F07F4393F07F4F3B
:10B5400081F06051704732F07F4208BF704793F03E
:10B550007F4F04BF41F40021704730B54FF4607451
:10B5600001F0004521F000411CE700BF50EA010254
:10B5700008BF704730B54FF000050AE050EA0102FD
:10B5800008BF704730B511F0004502D5404261EB6D
:10B5900041014FF4806404F132045FEA915C3FF4AE
:10B5A000D8AE4FF003025FEADC0C18BF03325FEA4B
:10B5B000DC0C18BF033202EBDC02C2F1200300FAFC
:10B5C00003FC20FA02F001FA03FE40EA0E0021FA21
:10B5D00002F11444BDE600BF70B54FF0FF0C4CF40F
:10B5E000E06C1CEA11541DBF1CEA135594EA0C0FC1
:10B5F00095EA0C0F00F0DEF82C4481EA030621EAFC
:10B600004C5123EA4C5350EA013518BF52EA033536
:10B6100041F4801143F4801338D0A0FB02CE4FF0E8
:10B620000005E1FB02E506F00042E0FB03E54FF018
:10B630000006E1FB03569CF0000F18BF4EF0010E10
:10B64000A4F1FF04B6F5007F64F5407404D25FEA0C
:10B650004E0E6D4146EB060642EAC62141EA5551BF
:10B660004FEAC52040EA5E504FEACE2EB4F1FD0C01
:10B6700088BFBCF5E06F1ED8BEF1004F08BF5FEA7F
:10B68000500E50F1000041EB045170BD06F0004631
:10B6900046EA010140EA020081EA0301B4EB5C04DE
:10B6A000C2BFD4EB0C0541EA045170BD41F48011D6
:10B6B0004FF0000E013C00F3AB8014F1360FDEBFFB
:10B6C000002001F0004170BDC4F10004203C35DAD7
:10B6D0000C341BDC04F11404C4F1200500FA05F35A
:10B6E00020FA04F001FA05F240EA020001F00042FB
:10B6F00021F0004110EBD37021FA04F642EB060171
:10B700005EEA430E08BF20EAD37070BDC4F10C049A
:10B71000C4F1200500FA04F320FA05F001FA04F25E
:10B7200040EA020001F0004110EBD37041F100014A
:10B730005EEA430E08BF20EAD37070BDC4F1200555
:10B7400000FA05F24EEA020E20FA04F301FA05F2BD
:10B7500043EA020321FA04F001F0004121FA04F265
:10B7600020EA020000EBD3705EEA430E08BF20EA35
:10B77000D37070BD94F0000F0FD101F0004640006F
:10B7800041EB010111F4801F08BF013CF7D041EAF1
:10B79000060195F0000F18BF704703F000465200F5
:10B7A00043EB030313F4801F08BF013DF7D043EAC6
:10B7B0000603704794EA0C0F0CEA135518BF95EA7C
:10B7C0000C0F0CD050EA410618BF52EA4306D1D103
:10B7D00081EA030101F000414FF0000070BD50EA22
:10B7E000410606BF1046194652EA430619D094EAAC
:10B7F0000C0F02D150EA013613D195EA0C0F05D196
:10B8000052EA03361CBF104619460AD181EA0301E9
:10B8100001F0004141F0FE4141F470014FF00000A1
:10B8200070BD41F0FE4141F4780170BD70B54FF03C
:10B83000FF0C4CF4E06C1CEA11541DBF1CEA1355BC
:10B8400094EA0C0F95EA0C0F00F0A7F8A4EB05049E
:10B8500081EA030E52EA03354FEA013100F0888095
:10B860004FEA03334FF0805545EA131343EA12635E
:10B870004FEA022245EA111545EA10654FEA002613
:10B880000EF000419D4208BF964244F1FD0404F5CC
:10B89000407402D25B084FEA3202B61A65EB030528
:10B8A0005B084FEA32024FF480104FF4002CB6EBE5
:10B8B000020E75EB030E22BFB61A754640EA0C0065
:10B8C0005B084FEA3202B6EB020E75EB030E22BFA5
:10B8D000B61A754640EA5C005B084FEA3202B6EBE6
:10B8E000020E75EB030E22BFB61A754640EA9C00A5
:10B8F0005B084FEA3202B6EB020E75EB030E22BF75
:10B90000B61A754640EADC0055EA060E18D04FEA32
:10B91000051545EA16754FEA06164FEAC30343EAD2
:10B9200052734FEAC2025FEA1C1CC0D111F4801F9F
:10B930000BD141EA00014FF000004FF0004CB6E798
:10B9400011F4801F04BF01430020B4F1FD0C88BF37
:10B95000BCF5E06F3FF6AFAEB5EB030C04BFB6EB42
:10B96000020C5FEA500C50F1000041EB045170BD35
:10B970000EF0004E4EEA113114EB5C04C2BFD4EB62
:10B980000C0541EA045170BD41F480114FF0000EE6
:10B99000013C90E645EA060E8DE60CEA135594EA62
:10B9A0000C0F08BF95EA0C0F3FF43BAF94EA0C0F65
:10B9B0000AD150EA01347FF434AF95EA0C0F7FF4DA
:10B9C00025AF104619462CE795EA0C0F06D152EA2E
:10B9D00003353FF4FDAE1046194622E750EA410612
:10B9E00018BF52EA43067FF4C5AE50EA41047FF423
:10B9F0000DAF52EA43057FF4EBAE12E74FF0FF3C88
:10BA000006E000BF4FF0010C02E000BF4FF0010C58
:10BA10004DF804CD4FEA410C7FEA6C5C4FEA430CD1
:10BA200018BF7FEA6C5C1BD001B050EA410C0CBF20
:10BA300052EA430C91EA030F02BF90EA020F002082
:10BA4000704710F1000F91EA030F58BF994208BFE9
:10BA500090422CBFD8176FEAE37040F001007047A6
:10BA60004FEA410C7FEA6C5C02D150EA013C07D1FD
:10BA70004FEA430C7FEA6C5CD6D152EA033CD3D048
:10BA80005DF8040B704700BF8446104662468C4642
:10BA90001946634600E000BF01B5FFF7B7FF002875
:10BAA00048BF10F1000F01BD4DF808EDFFF7F4FF9E
:10BAB0000CBF012000205DF808FB00BF4DF808ED29
:10BAC000FFF7EAFF34BF012000205DF808FB00BF4C
:10BAD0004DF808EDFFF7E0FF94BF012000205DF86E
:10BAE00008FB00BF4DF808EDFFF7CEFF94BF012023
:10BAF00000205DF808FB00BF4DF808EDFFF7C4FF1C
:10BB000034BF012000205DF808FB00BF4FEA410C64
:10BB10007FEA6C5C02D150EA013C0AD14FEA430C47
:10BB20007FEA6C5C02D152EA033C02D14FF0000084
:10BB300070474FF0010070474FEA410212F50012C2
:10BB400015D211D56FF47873B3EB625212D94FEA64
:10BB5000C12343F0004343EA505311F0004F23FA4E
:10BB600002F018BF404270474FF00000704750EAA3
:10BB7000013005D111F0004008BF6FF00040704760
:10BB80004FF00000704700BF002103E00B4B5B58F3
:10BB9000435004310A480B4B42189A42F6D30A4AE2
:10BBA00002E0002342F8043B084B9A42F9D300F02C
:10BBB0008BFC03F0A9F800F078FE7047242A0108F6
:10BBC000000000201402002014020020942600200F
:10BBD000FEE7000010B586B0EC46134C0FCCACE885
:10BBE0000F0094E803004CF8040BACF80010684612
:10BBF000FFF72EFB81B2684600F0BCFD00220B4B24
:10BC00000B4803F01BFD00F025F8012000F026FD95
:10BC10004FF4FA7001F094FE002000F01FFD4FF485
:10BC2000FA7001F08DFEF0E76C1A01080000044084
:10BC3000601A010808B5012000F020FD4FF496704D
:10BC400001F07EFE002000F019FD4FF4967001F027
:10BC500077FEF0E700B583B0052301931923009325
:10BC60004FF4007300220949094801F0CBFD094B4C
:10BC7000186008B101F08DFE064B1B6813B103B0CC
:10BC80005DF804FB044803F05FFDF8E735BC0008ED
:10BC9000841A010830020020881A01080138B0F126
:10BCA000807F0BD24FF0E0235861054AFF2182F8D4
:10BCB00023100020986107221A6170470120704705
:10BCC00000ED00E000487047340200200048704753
:10BCD0003422002010B500F087F800F01BFC0A4B5E
:10BCE00018680A4BA3FB00308009FFF7D7FF00F06C
:10BCF0008FFDFFF7E7FF0446FFF7E8FF0146204608
:10BD000001F022FA10BD00BF00000020D34D6210E8
:10BD100008B500F0B3FE00F079F800F03DFD00F04A
:10BD2000BBFE08BDF0B583B005460D238DF8073086
:10BD300000240F4B83F8384000F0D8FF074606E098
:10BD400001231A4631460A4800F04EFB0134BC423A
:10BD50000BD22E192B5D0A2BF2D101231A460DF1BD
:10BD60000701034800F040FBEAE703B0F0BD00BF65
:10BD7000382200200F4B1B681A6812F0200F03D0E6
:10BD80005868C0B2C0B2704700B583B01A6812F0EC
:10BD9000080F06D0002201921A6801925B68019395
:10BDA000019B0A2001F0CCFD4FF0FF30C0B203B080
:10BDB0005DF804FB382200207047000010B50446EF
:10BDC000074B1868074BA3FB0030800900F082F88E
:10BDD000002221464FF0FF3000F038F8002010BD5F
:10BDE00000000020D34D621008B5074A136843F0E5
:10BDF00010031360052000F017F80020FFF7DEFFA6
:10BE0000FFF7DAFF002008BD00200240024A136855
:10BE100001331360704700BF34220020014B1868C3
:10BE2000704700BF34220020074AD36823F4E06340
:10BE30001B041B0C000200F4E060034343F0BF63EB
:10BE400043F40033D360704700ED00E000B5194BB8
:10BE5000DB68C3F30223C3F1070CBCF1040F28BF56
:10BE60004FF0040C03F1040EBEF1060F18D9033B8A
:10BE70004FF0FF3E0EFA0CFC21EA0C0199400EFA3D
:10BE800003F322EA0303194300280BDB0901C9B2BB
:10BE900000F1604000F5614080F800135DF804FB9C
:10BEA0000023E5E700F00F000901C9B2024B195465
:10BEB000F4E700BF00ED00E014ED00E000F01F0229
:10BEC000400901239340024A42F82030704700BFE6
:10BED00000E100E00138B0F1807F0BD24FF0E023A9
:10BEE0005861054AF02182F823100020986107224A
:10BEF0001A6170470120704700ED00E070B582B014
:10BF00000024A446A6E0804DAA4210D007D97F4D58
:10BF1000AA420CD005F58035AA4208D013E0A5F559
:10BF20008015AA4203D005F57025AA4207D18A6878
:10BF3000002A58D0012A51D04361082403E0A5F516
:10BF40008015AA42F3D0BEF1FF0F4ED80646BEF1CF
:10BF5000FF0F4CD84FEA8C0233680F25954023EA37
:10BF6000050304FA02F2134333604B6813F0805F59
:10BF70006ED0674B9A6942F001029A619B6903F0A7
:10BF800001030193019B4FEA9C02951C614B53F8FE
:10BF900025600CF003039D000F23AB4026EA030647
:10BFA0005D4B984229D003F58063984200F08E8063
:10BFB00003F58063984200F08B8003F5806398421C
:10BFC00019D004231AE0CC68BDE7CC680434BAE782
:10BFD000CC680834B7E7CC680C34B4E703610824B4
:10BFE000B1E70024AFE70424ADE7061DAFE7ACF1ED
:10BFF00008029200B0E7032300E00023AB40334384
:10C000000232444D45F822304B6813F4803F61D032
:10C01000424A136843EA0E0313604B6813F4003F6F
:10C020005ED03E4A536843EA0E0353604B6813F4F4
:10C03000801F5BD0394A936843EA0E0393604B68D4
:10C0400013F4001F58D0354AD36843EA0E03D36077
:10C050000CF1010CBCF10F0F54D8012303FA0CF3BF
:10C060000A6802EA030E33EA0202F1D14A68122A90
:10C070003FF649AF122A3FF666AF01A555F822F008
:10C080002FBF0008C7BF0008D1BF0008E3BF0008EA
:10C0900047BF000847BF000847BF000847BF000868
:10C0A00047BF000847BF000847BF000847BF000858
:10C0B00047BF000847BF000847BF000847BF000848
:10C0C00047BF0008CBBF0008D7BF0008012395E792
:10C0D000022393E7114A136823EA0E0313609CE7D7
:10C0E0000E4A536823EA0E0353609FE70B4A936896
:10C0F00023EA0E039360A2E7084AD36823EA0E03FB
:10C10000D360A5E702B070BD00002210000031101E
:10C1100000100240000001400008014000040140FE
:10C120000AB101617047090401617047014B186849
:10C13000704700BF0000002008B5FFF7F7FF044B71
:10C140005B68C3F30223034AD35CD84008BD00BF39
:10C1500000100240AC1A010808B5FFF7E7FF044BD6
:10C160005B68C3F3C223034AD35CD84008BD00BF59
:10C1700000100240AC1A01082DE9F04104460268A3
:10C18000136923F44053C1680B4313618368026948
:10C190001343426913430168CA6822F4B05222F083
:10C1A0000C021343CB600268536923F44073816926
:10C1B0000B4353610268574B9A4255D0FFF7BCFFBF
:10C1C00000EB800000EB80006568AD00B0FBF5F58A
:10C1D000514FA7FB05356D092E01FFF7ADFF00EBB1
:10C1E000800000EB80006568AD00B0FBF5F5FFF75F
:10C1F000A3FF00EB800000EB800063689B00B0FBB6
:10C20000F3F3A7FB03235B094FF0640808FB135308
:10C210001B013233A7FB03235B0903F0F003F5187E
:10C22000FFF78AFF00EB800000EB80006668B60035
:10C23000B0FBF6F6FFF780FF00EB800000EB80001C
:10C2400063689B00B0FBF3F0A7FB0030400908FBDC
:10C25000106000013230A7FB0037C7F34317236893
:10C260002F449F60BDE8F081FFF776FF00EB800070
:10C2700000EB80006568AD00B0FBF5F5264FA7FB2D
:10C2800005356D092E01FFF767FF00EB800000EB1D
:10C2900080006568AD00B0FBF5F5FFF75DFF00EBD2
:10C2A000800000EB800063689B00B0FBF3F3A7FB0A
:10C2B00003235B094FF0640808FB13531B0132335F
:10C2C000A7FB03235B0903F0F003F518FFF744FF16
:10C2D00000EB800000EB80006668B600B0FBF6F66D
:10C2E000FFF73AFF00EB800000EB800063689B00E3
:10C2F000B0FBF3F0A7FB0030400908FB1060000121
:10C300003230A7FB0037C7F3431723682F449F60E1
:10C31000A8E700BF003801401F85EB512DE9F84325
:10C3200005460F4616469946DDF820802C6824689D
:10C3300037EA04030CBF4FF0010C4FF0000CB4457A
:10C340001FD1B8F1FF3FF1D0B8F1000F05D0FFF7D2
:10C3500065FDA0EB09004045E8D92A68D36823F4BD
:10C36000D073D3602A68536923F0010353612023FB
:10C3700085F8393085F83A30002385F838300320C5
:10C3800000E00020BDE8F883704758B310B50446BC
:10C3900090F839300BB3242384F839302268D368FD
:10C3A00023F40053D3602046FFF7E6FE22681369AA
:10C3B00023F4904313612268536923F02A035361E5
:10C3C0002268D36843F40053D3600020E063202345
:10C3D00084F8393084F83A3010BD80F83830FFF7EF
:10C3E000D3FFD8E7012070472DE9F04182B01E4607
:10C3F00090F83930DBB2202B55D104460D469046DB
:10C40000002954D0002A54D090F83830012B52D053
:10C41000012380F838300023C363212380F83930AA
:10C42000FFF7FCFC0746A4F82480A4F8268010E05F
:10C4300000963B46002280212046FFF76FFF002830
:10C440003BD12B882268C3F3080353602369CBB91F
:10C450000235E38C9BB2BBB1E28C92B2013A92B24C
:10C46000E284A368B3F5805FE2D000963B460022E9
:10C4700080212046FFF752FF08BB15F8012B2368E7
:10C480005A60E6E70135E4E700963B46002240218A
:10C490002046FFF743FFA0B9202384F8393000235A
:10C4A00084F8383000E0022002B0BDE8F0810120BD
:10C4B000FAE70120F8E70220F6E70320F4E703207B
:10C4C000F2E70320F0E700000E4B1A6842F0010289
:10C4D0001A6059680C4A0A405A601A6822F084723D
:10C4E00022F480321A601A6822F480221A605A6894
:10C4F00022F4FE025A604FF41F029A60034B044A72
:10C500009A607047001002400000FFF800ED00E064
:10C5100000B000081F4B5B6803F00C03042B14D021
:10C52000082B16D01BB11C4B1C4A1A6002E01A4B98
:10C530001A4A1A60174B5B68C3F30313184AD15C9D
:10C54000154A1368CB4013607047134B134A1A60A7
:10C55000F0E7104A53685268C3F38343023312F47E
:10C56000803F05D10F4A02FB03F30B4A1360E1E75A
:10C57000084A526812F4003F05D00A4A02FB03F34E
:10C58000054A1360D6E7054A02FB03F3024A13602B
:10C59000D0E700BF001002400000002000127A0027
:10C5A0009C1A010800093D0008B500F0DDF800F014
:10C5B00051F808BD2DE9F04389B000240494059496
:10C5C00006940794204B9A6942F004029A619A6992
:10C5D00002F004020192019A9A6942F008029A61FB
:10C5E0009A6902F008020292029A9A6942F04002A5
:10C5F0009A619B6903F040030393039BDFF84C901F
:10C60000224620214846FFF78BFD114D224620216E
:10C610002846FFF785FD4FF02008CDF81080012750
:10C62000059706940226079604A94846FFF766FC7C
:10C63000CDF8108005970694079604A92846FFF7C1
:10C640005DFC09B0BDE8F08300100240000C014021
:10C650000018014008B5FFF7ADFF08BD08B528B1C7
:10C66000002220210448FFF75BFD08BD01222021A4
:10C670000148FFF755FDF8E7000C014008B528B167
:10C68000002220210448FFF74BFD08BD0122202194
:10C690000148FFF745FDF8E700180140FEE70000FC
:10C6A00010464FF0000C0AE0064B1B6813F0400FD9
:10C6B000FAD011F80C20034B5A600CF1010C8445A0
:10C6C000F2DB70470038014010B586B000240294B8
:10C6D000039404940594204B9A6942F480429A6131
:10C6E0009A6902F480420092009A9A6942F0040228
:10C6F0009A619B6903F004030193019B4FF4C063AB
:10C700000293022303930323059302A91348FFF71F
:10C71000F5FB1348134B03604FF4E133436084602F
:10C72000C46004610C2343618461C461FFF72DFE82
:10C7300078B9002211462520FFF788FB2520FFF756
:10C74000BDFB074B1A68D36843F02003D36006B0E3
:10C7500010BDFFF7A3FF00BF00100240000801401A
:10C76000382200200038014008B5FFF7ADFF012056
:10C7700008BD000008B50A464FF0FF3301460248E5
:10C78000FFF732FE08BD00BF38220020014B1868B9
:10C79000704700BF7822002008B5094A13680133AA
:10C7A000136001F029F8036C013B036413B101F03D
:10C7B00003FA08BDC36B036401F04CF8F7E700BF50
:10C7C00078220020002815DB0C4981FB0023C217CA
:10C7D000C2EBA3124FF47A7C0CFB02F2831A0CFB1F
:10C7E00003F303F2E73381FB0301D817C0EBA11079
:10C7F000104470474FF0FF30704700BFD34D6210B8
:10C8000000207047002070470020704700207047CC
:10C8100010B5044C02E054F8043B9847024B9C428C
:10C82000F9D310BD4C1A0108541A010810B5044C74
:10C8300002E054F8043B9847024B9C42F9D310BDE8
:10C84000541A01085C1A010808B5FFF7EFFFFFF75B
:10C85000C1F908BD00B583B0142301930A230093E6
:10C860004FF4006300220449044800F0CBFF01F0BC
:10C8700090F803B05DF804FB49C80008B41A010839
:10C8800008B5FEF765FCFFF725FA00F0C9FB01F0DB
:10C89000F3F900F01BFEFFF7DDFF01F0FBF900F0FC
:10C8A0002FF800F039FE002008BD08B5FFF7E8FFBB
:10C8B000002008BD38B513E00E4B1B681D4655F827
:10C8C00014195A684A60196811605B601B605869E6
:10C8D00000F018FD284600F0DCFD2046FEF73CFC89
:10C8E000FEF736FC0446034B1A689A42E4D1FEF781
:10C8F00033FC38BDBC24002008B5FFF7DBFFFCE7A4
:10C9000010B584B00A4C202303931F2302934FF4E5
:10C9100080730193074B00930023074A0749204681
:10C9200000F04EFF204601F034F804B010BD00BF07
:10C930007C220020F4220020F9C80008BC1A01085B
:10C9400070B5044616461D460A46022100F040FD19
:10C9500004F11403A3616361A6836572002070BDB6
:10C960002DE9F04182B005460191FEF7F1FB074643
:10C97000AB8BF3B9019B13B300F03EFF04460023D9
:10C98000036305F1140695F8098000F091FFB8F1F2
:10C99000000F19D0B8F1010F1FD0019B002B3ADC1A
:10C9A0003846FEF7D9FB00F0CFFD206B02B0BDE8A2
:10C9B000F081013BAB83FEF7CFFB0020F6E7FEF7EB
:10C9C000CBFB6FF00100F1E704F114037268136010
:10C9D0007268A26173606661DFE76B699E420FD087
:10C9E00094F8351093F82120914201D31B68F5E7A4
:10C9F00004F1140259680A605968A1615A606361C0
:10CA00009E42CAD104F11403726813607268A26175
:10CA100073606661C1E704F1440501AA002128465C
:10CA200001F09FF8284601F019F8B9E738B5044637
:10CA3000FEF78EFB054604F11403606983420AD0B9
:10CA4000143800F083FF01242846FEF785FB012CF3
:10CA500010D0204638BDA38B4FF6FF72934203D00F
:10CA60000133A3830024EFE72846FEF775FB6FF040
:10CA70000204EEE700F068FD0024EAE708B5FEF7DF
:10CA800067FB044A13780133DBB21370FEF764FBD3
:10CA900008BD00BFF423002008B5FEF759FB044A87
:10CAA0001378013BDBB21370FEF756FB08BD00BFE5
:10CAB000F42300202DE9F04784B099460D9C0E9D8B
:10CAC00015F0400F17D0DFF84CA115F0100F01D072
:10CAD00025F0010515F0010F10D0302615F0020FDA
:10CAE00011D0002A0CDB15F0040F21D115F0080F2E
:10CAF00020D1002708E0DFF820A1E6E72026EDE7B7
:10CB000052422D2700E0002792BB30238DF80030E1
:10CB10004FF0010CA4452EDC22460C9B9B1A15F00D
:10CB2000110F38D117B1002B00DD013B9E4626E0E6
:10CB30002B27E9E72027E7E7384BA3FB023E4FEA24
:10CB4000DE0E0EEB8E08A2EB480872461AF808E0DB
:10CB50000CF110036B4403F810EC0CF1010C002AEB
:10CB6000D8D0B9F10A0FE7D002F00F081209EDE7AB
:10CB70004FF0000CF3E76246CFE701309E460EF11E
:10CB8000FF33BEF1000F06DD8842F6D24FF0200ED3
:10CB900080F800E0F1E727B1884200D20770013B3E
:10CBA000013015F0100F02D00CE001302B465D1E55
:10CBB000002B03DD8842F8D20670F6E72B4601E031
:10CBC0000130724602F1FF3E624506DD8842F7D22F
:10CBD00030220270F4E7013094460CF1FF32BCF1D0
:10CBE000000F0BDD54B18842F5D202F110056D44FF
:10CBF00015F8105C0570EEE7013013465A1E002B45
:10CC000004DD8842F8D220230370F5E704B0BDE8C4
:10CC1000F08700BF581C01086C1C0108CDCCCCCC9F
:10CC2000032A22D910B4CCB210F0030F1FD144EA6A
:10CC3000042444EA0444034605E01C605C609C60F4
:10CC4000DC60103A10330F2AF7D802E043F8044BA7
:10CC5000043A032AFAD802E003F8011B624602F103
:10CC6000FF3C002AF8D110BC7047034604E003469D
:10CC7000F5E703F8011B624602F1FF3C002AF8D1F8
:10CC80007047884218D98B18834217D900EB020CE1
:10CC900004E013F8012D0CF8012D0A46511E002A5C
:10CCA000F7D1704711F8012B03F8012B624602F10E
:10CCB000FF3C002AF6D170470346F8E70346F6E743
:10CCC0009AB110B5944603468E460C7801311C701B
:10CCD00001331CB1BCF1010CF6D110BDBCF1010C4B
:10CCE000FBD0002203F8012BF8E77047034600E071
:10CCF00001331A78002AFBD1181A70472DE9F04148
:10CD000086B00746884614460593461803D36FEA53
:10CD100000084FF0FF36384601E001300134237837
:10CD2000002B00F05681252B03D0B042F5D20370C2
:10CD3000F3E7002101E041F0100114F8013F2D2B31
:10CD4000F9D02B2B08D0202B09D0232B0AD0302B45
:10CD50000BD141F00101F0E741F00401EDE741F0B2
:10CD60000801EAE741F02001E7E7A3F13002092AD0
:10CD70001BD92A2B1BD04FF0FF3523782E2B21D027
:10CD80004FF0FF3C2278682A43D06C2A41D0002221
:10CD900040E005EB850514F8013B03EB4505303D0C
:10CDA0002378303B092BF4D9E7E70025F8E7013475
:10CDB000059B1A1D05921D68002DDEDA6D4241F0BB
:10CDC0001001DAE714F8013FA3F13002092A16D95D
:10CDD0002A2B17D04FF0000CD4E70CEB8C0C14F876
:10CDE000013B03EB4C0CACF1300C2378303B092BAE
:10CDF000F3D9BCF1000FC5DA4FF0000CC2E74FF0D9
:10CE0000000CF2E70134059B1A1D0592D3F800C00F
:10CE1000EFE701342378252B00F09180C0F0B0803B
:10CE2000782B00F2AD80582BC0F0AA80583B202B05
:10CE300000F2A680DFE803F09CA4A4A4A4A4A4A408
:10CE4000A4A4A411A0A4A4A4A4A0A4A4A4A4A48958
:10CE50006FA4A430A4B3A4A4B50011F0100F09D09E
:10CE6000059B1A1D05921B78B04200D20370013059
:10CE700009E00130013D002DF2DDB042F9D220235E
:10CE80000370F6E70130013D002D7FF747AFB04258
:10CE9000F8D220230370F5E7059B1A1D05921A6846
:10CEA0000AB1002302E0524AFBE70133AB4204D04F
:10CEB00012F803E0BEF1000FF7D1BCF1000F02DD64
:10CEC000634500DD634611F0100F03D000210EE032
:10CED00001300D46691EAB4204DAB042F8D220257B
:10CEE0000570F5E70D46F1E7013001320131994255
:10CEF00008DAB042F8D292F800C080F800C0F3E738
:10CF0000013015466A1EAB42BFF608AFB042F7D2F9
:10CF100020210170F4E7B5F1FF3F0CD0059B1A1DED
:10CF200005921A680291CDF804C00095102331468D
:10CF3000FFF7C0FDF2E641F001010825EEE7B0423F
:10CF400001D2252303700130E8E608236C2A2AD099
:10CF5000682A2FD0059A02F1040ECDF814E0126869
:10CF60000291CDF804C000953146FFF7A3FDD5E648
:10CF700041F040011023E9E741F002010A23E5E70F
:10CF8000B04201D225230370421C237823B1B24260
:10CF900000D243700230C1E6013C1046BEE60A23CF
:10CFA000D4E71023D2E7059A02F1040ECDF814E07D
:10CFB0001268D5E7059A02F1040ECDF814E0D2F814
:10CFC00000E01FFA8EF211F0020FC9D00FFA8EF2B4
:10CFD000C6E7B8F1000F02D0B04204D20370C01B04
:10CFE00006B0BDE8F081002306F8013CF7E700BF7A
:10CFF000C41A01080FB410B582B004AB53F8042B67
:10D000000193064C7F212046FFF778FE2046FEF76D
:10D0100089FE02B0BDE8104004B07047F82300203C
:10D0200000B583B00948FFF7E5FF0948FFF7E2FFC5
:10D03000084B00930523012203210748FFF7DAFF7D
:10D040000648FFF7D7FF03B05DF804FBCC1A0108D0
:10D05000D81A0108201B0108001B01082C1B01081D
:10D06000E8B110F0FF020AD110F47F4F0BD110F499
:10D070007F0F0ED1030E0A4AD05C19307047084B5F
:10D08000985C01307047C0F30723054AD05C093033
:10D090007047C0F30743024AD05C113070477047B5
:10D0A000581B0108164B196842680A4490420FD079
:10D0B00053886BB9134B1B68934209D0124B1B6802
:10D0C000934216D05368436053680B44421A9A60E7
:10D0D00083680B4498420BD05A884AB90A4A1268AE
:10D0E000824209D042685A6042680A445B1A9360DF
:10D0F0007047054B1860E5E7034A1360F2E700BF8D
:10D100007C24002078240020A024002008B5084BAF
:10D1100019680848FFF76EFF074B19680748FFF7C3
:10D1200069FF074B19680748FFF764FF08BD00BF98
:10D13000A8240020801C0108AC240020941C0108B5
:10D14000A4240020A81C010870B50A4621F003039E
:10D15000182B06D9C41C24F00304A3F11801A14222
:10D1600004D201461148FFF745FF70BD1B1BA3F118
:10D1700018010F4A11600F4D2C604FF4F5522280B8
:10D18000A3F10C0161600023A360638060180A4E64
:10D190003060625201224280416081600749084844
:10D1A000FFF7CEFB2A68074B1A60DEE7D01C0108A8
:10D1B000A82400207C24002078240020C81C01081A
:10D1C00080240020A024002000287AD0F8B505464D
:10D1D000033525F003053D4B1B689D4273D80B2D8D
:10D1E00000D80C254FF0FF313948FFF7B9FB394B18
:10D1F0001E68394B1868331A1DE001236380231A17
:10D20000FB1A364A11680B441360354A1268934280
:10D2100047D9334A136044E05B6803442D4A1360E6
:10D220002C4B1B685A88002A40D02E4A1268934221
:10D23000F2D13BE06368254A1268511B99423BD901
:10D24000C41861880029F5D16768F91A0C39A94218
:10D25000F0D305F1180C6145CFD3E9180C3100EB80
:10D26000010C4FF4F55747520027ACF8027067687D
:10D27000CCF80470CCF80830616001236380DCF8DE
:10D2800004300C32934201D003449960134A13686E
:10D290002B440C331360124A1268934201D9104A8E
:10D2A00013604FF4F5532380A642B9D00848FFF726
:10D2B000BDFB04F10C0003E00548FFF7B7FB0020BD
:10D2C000F8BD002070470020FAE700BFA824002026
:10D2D00080240020A02400207C240020AC240020F6
:10D2E000A42400207824002038B501FB00F4204657
:10D2F000FFF76AFF054618B122460021FFF790FCB0
:10D30000284638BD002842D038B50446204B1B685B
:10D31000834203D81F4B1B68834200D838BDA0F15D
:10D320000C054FF0FF311C48FFF71AFB34F80A3C9C
:10D3300023B134F80C3CB3F5F55F0AD01748FFF77A
:10D3400059FE34F80C3C34F80A2C29461448FFF7EF
:10D3500051FE002324F80A3C4FF4F55324F80C3C0A
:10D36000104B1B68AB4201D90E4B1D60084B1B686C
:10D37000EB1A54F8081C0C4A5B1A11680B44136032
:10D380002846FFF78FFE0448FFF750FBC6E77047BB
:10D390007C24002078240020802400200C1D01081B
:10D3A000281D0108A0240020AC2400200023032B0A
:10D3B00009DC1A0105498A5C824201D00133F6E793
:10D3C00001EB031070470020704700BF04000020ED
:10D3D0002DE9F04106460F4690460846FFF7E6FF66
:10D3E000054600F035F96B6800E01B682C1D9C4277
:10D3F000FBD100F039F967F07F0737720822414608
:10D400003046FFF75DFCFDF7A3FE06F10C036A68EA
:10D4100053606A68F2606B603461FDF79DFEBDE8A1
:10D42000F08110B5044600230372FDF791FE04F16C
:10D430000C03E16822694A60E16811602361E360DE
:10D44000FDF78AFE10BDF8B507460E46FFF7AEFFA2
:10D450000446C068FFF7B8FE0546C0B1E268002187
:10D46000FFF7DEFB2F7200236B720822314628463D
:10D47000FFF726FCFDF76CFE221D05F10C03616829
:10D480004B606168E96063602A61FDF765FE2846CC
:10D49000F8BD10B5044600230372FDF759FE04F1F0
:10D4A0000C03E16822694A60E16811602361E3606E
:10D4B000FDF752FE2046FFF725FF10BD90F908301A
:10D4C000002B01DB002070470120704700230C4A2D
:10D4D000138006E00B4901EBC302526041F8332090
:10D4E00001331F2BF6DD084B1F221A700023074A59
:10D4F0001360074A1360074B5B601B60704700BFF7
:10D50000B8240020C4240020B0240020B42400202B
:10D51000C4250020BC24002008B5084B1868FFF77C
:10D520009FFD0138064B53F83000A0F11402054B63
:10D530001A600830FDF741FE08BD00BFC425002079
:10D54000C4240020B424002038B5FDF701FE0446B1
:10D55000144BB3F90030C3B9134B1868FFF780FDC3
:10D56000431E124A52F83310A1F114021048006809
:10D5700090420AD00F4D2B700D4B1A600E4B1B784A
:10D580003BB108311C30FDF7EAFD2046FDF7E4FD14
:10D5900038BD08311C30FDF7E2FD2046FDF7DCFD0B
:10D5A000F6E700BFB8240020C4250020C4240020D2
:10D5B000B4240020B0240020F423002010B5044639
:10D5C000FDF7C6FD94F9343023F00F0343F0010357
:10D5D00084F8343094F83520094B03EBC20304F18E
:10D5E000140259680A605968A1615A606361A16BAD
:10D5F000044A13680B431360FDF7AEFD10BD00BF76
:10D60000C4240020C425002010B50446FDF7A0FD69
:10D6100004F114036169A2694A6061691160A36140
:10D62000636194F83520084B03EBC20153F83230A4
:10D63000994202D0FDF790FD10BDA16B034A13681B
:10D6400023EA01031360F5E7C4240020C425002069
:10D6500008B5FDF77DFD034A138801331380FDF7FC
:10D660007BFD08BDB824002008B5FDF771FD0B4A0D
:10D670001388013B1BB21380002B02DDFDF76CFD0C
:10D6800008BD134600221A80FDF766FD044B1B6897
:10D69000002BF5D0FFF758FFF2E700BFB8240020B9
:10D6A000B424002038B50446FDF752FD0546236F2B
:10D6B0000BB1204698472846FDF74EFD38BD0000C7
:10D6C00038B5144B1C68FDF743FD05462046FFF7AF
:10D6D000E9FF2046FFF798FF042384F8343004F173
:10D6E000440000F097F92046FFF7E8FE01280DD02E
:10D6F00004F11402084B19684A6061611A60A36161
:10D70000FFF722FF2846FDF727FD38BD2046FFF72B
:10D7100088FEF5E7B4240020BC240020F0B583B0D7
:10D72000044617460898099A9DF828500B9E04F164
:10D730001401A161616127626362A062E262232138
:10D74000FFF76EFAA16AE36A1A1F104B0A44616A76
:10D75000206A00F0EBFBE06184F8365084F8355025
:10D760000025A563E6632664256384F834502567A5
:10D770006567019500952346054A214604F144005A
:10D7800000F034F9284603B0F0BD00BFC1D6000850
:10D7900095D7000808B56FF00102026300F114028A
:10D7A0008169D0F814C0CCF80410D0F814C0C1F8C6
:10D7B00000C082614261FFF701FFFFF7C5FE08BDAF
:10D7C000F0B585B005460C4616461F460A460121AF
:10D7D000FFF7FEFD0D9B03939DF8303002930B9BEA
:10D7E00001930A9B00933B46324621462846FFF7A9
:10D7F00095FF05B0F0BD0000014B1868704700BFF1
:10D80000B42400202DE9F04385B004460F4690462D
:10D810001D4601460120FFF716FE064688B1284640
:10D82000FFF7D2FC814680B10D9B03939DF8303009
:10D8300002930195009043463A4621463046FFF751
:10D840006DFF304605B0BDE8F0833046FFF721FE9E
:10D850004E46F6E710B5FDF77BFC134B1B6893F8BB
:10D86000342002F00F02012A03D159699A699142CA
:10D8700003D1FDF771FC002010BD03F114044A60D0
:10D88000596911609C615C6193F83510074A02EB9D
:10D89000C10251680C605168996154605A61FDF78A
:10D8A0005BFCFFF751FEE6E7B4240020C42400200F
:10D8B00038B590F8343003F00F03012B17D104462C
:10D8C000FDF746FC05462046FFF79EFE94F93430EE
:10D8D00023F00F0343F0020384F8343004F14400D2
:10D8E00000F018F92846FDF737FC002038BD4FF04E
:10D8F000FF30FBE770B582B00190FDF729FC0546CB
:10D900000E4B1C682046FFF7D3FF04F1440601AA22
:10D910000021304600F025F9304600F09FF82846F7
:10D92000FDF71AFCFFF710FE236B13F1020F02D074
:10D93000002002B070BD00232363F9E7B424002067
:10D9400008B5FEF73FFFFFF7D5FF08BD38B590F8E3
:10D95000343003F00F03022B18D10446FDF7F8FB17
:10D96000054604F114036169A2694A6061691160A6
:10D97000A361636104F1440000F0CCF82846FDF790
:10D98000EBFB2046FFF71AFE002038BD4FF0FF30BA
:10D99000FBE708B590F8361080F8351001228A4070
:10D9A0008263022280F83420FFF7D0FFFFF724FFC4
:10D9B00008B1FFF7C9FD002008BD9DF800C080F840
:10D9C00009C02CF0010C80F809C0C161026200227C
:10D9D000826243621346002B00DD70479A1C00EB05
:10D9E000C202111D916051600133F4E770B582B03D
:10D9F000044615461E460A460A21FFF7E9FC9DF833
:10DA00001C300093069B324629462046FFF7D5FF7F
:10DA100002B070BD38B50446FDF79AFB0022002A1B
:10DA20000ADD637A23F001036372FDF795FB20465C
:10DA3000FFF7F7FC002038BD931C04EBC303191D4E
:10DA40009D68D3F804C0CCF80450D3F804C0C5F8DE
:10DA500000C0996059600132E1E7000070B582B002
:10DA60000446FDF775FB05460022002A23DD637A94
:10DA700023F001036372FEF789FE636AC618A6628B
:10DA8000224B0193002242B3214A136801331360F1
:10DA9000019B04F1140219684A60196861611A60F7
:10DAA000A361637A43F0010363722846FDF754FBD8
:10DAB000002002B070BD931C04EBC303191D5E6807
:10DAC000986870605E680660996059600132CCE7C2
:10DAD00002AB03EB820343F8041C02AB03EB8203AB
:10DAE00053F8040CD300094901EBC201496888428C
:10DAF0000AD001681433CB1A9B6A9E42E8D09B1B64
:10DB00006FF000408342E3D20132BCE7CC25002015
:10DB1000C825002038B5437A13F0010F1ED0044603
:10DB2000FDF716FB0022002A07DD637A23F00103CC
:10DB30006372FDF711FB002038BD931C04EBC30397
:10DB4000191D9D68D3F804C0CCF80450D3F804C064
:10DB5000C5F800C0996059600132E4E74FF0FF302A
:10DB6000EAE770B505460C461646FDF7F1FA042CB7
:10DB700006D8DFE804F009030C1116006B6A336065
:10DB8000FDF7EAFA002070BD33686B62F8E76B7A44
:10DB900023F002036B72F3E76B7A43F002036B72BC
:10DBA000EEE76B7A13F0010F02D001233360E7E751
:10DBB00000233360E4E700002DE9F04182B0CDF8A6
:10DBC00004D0CDF800D0FEF7E1FD0546FDF7C0FA20
:10DBD000804632E0931C06EBC303191D5D6898680C
:10DBE00068605D680560996059600132002AF1DD66
:10DBF00014F80B3C13F0020F03D123F0010304F8D7
:10DC00000B3C009B5C60236000946F466760A368D8
:10DC1000E0689847FEF7BAFD0546009BBB420CD072
:10DC200022686368536022681A606460246014F894
:10DC30000B3C03F00302032A0DD00E4B1C689C42E0
:10DC400011D0A4F114066369EB1A6FF000429342FD
:10DC500009D20022CAE723F0010304F80B3C304646
:10DC6000FFF7FCFEE9E74046FDF776FA02B0BDE8B3
:10DC7000F08100BFCC250020002303B17047044988
:10DC800001EBC302526041F833200133F5E700BFD6
:10DC9000CC2500207047000010B52648FFF7AAF9F0
:10DCA000254C94F829102548FFF7A4F994F8293059
:10DCB00013F0010F21D1204B93F8293013F0020FFC
:10DCC0001FD11D4B93F8293013F0040F1DD11A4BAF
:10DCD00093F8293013F0080F1BD1174B93F8293014
:10DCE00013F0100F19D1144B93F8293013F0800F53
:10DCF00017D11348FFF77EF910BD1248FFF77AF9E4
:10DD0000D9E71148FFF776F9DBE71048FFF772F91A
:10DD1000DDE70F48FFF76EF9DFE70E48FFF76AF916
:10DD2000E1E74FF0E023D3F8381D0B48FFF762F925
:10DD3000E2E700BF841D010800ED00E0901D01082E
:10DD400028200108A81D0108B41D0108C01D0108F4
:10DD5000D01D0108DC1D0108E41D010810B5214893
:10DD6000FFF748F9204C94F828102048FFF742F9B3
:10DD700094F8283013F0010F1BD11B4B93F8283077
:10DD800013F0020F19D1184B93F8283013F0080F35
:10DD900017D1154B93F8283013F0100F15D1124BF3
:10DDA00093F8283013F0800F13D11148FFF722F9B0
:10DDB00010BD1048FFF71EF9DFE70F48FFF71AF90B
:10DDC000E1E70E48FFF716F9E3E70D48FFF712F910
:10DDD000E5E74FF0E023D3F8341D0A48FFF70AF9CE
:10DDE000E6E700BFF41D010800ED00E0081E010891
:10DDF00028200108201E01082C1E0108381E0108D9
:10DE0000441E0108501E010810B52148FFF7F2F822
:10DE1000204C618D89B22048FFF7ECF8638D13F038
:10DE2000010F1CD11B4B5B8D13F0020F1BD1194B43
:10DE30005B8D13F0040F1AD1164B5B8D13F0080F96
:10DE400019D1144B5B8D13F4807F18D1114B5B8D6E
:10DE500013F4007F17D11148FFF7CCF810BD10481C
:10DE6000FFF7C8F8DEE70F48FFF7C4F8DFE70E4812
:10DE7000FFF7C0F8E0E70D48FFF7BCF8E1E70C4812
:10DE8000FFF7B8F8E2E70B48FFF7B4F8E3E700BFA5
:10DE9000601E010800ED00E0701E01082820010846
:10DEA000881E0108941E0108A01E0108A81E010872
:10DEB000B01E0108BC1E010808B54FF0E023D3F8DE
:10DEC0002C3D13F0020F19D14FF0E023D3F82C3D75
:10DED00013F0804F0BD0124B93F8293093B9104BAD
:10DEE00093F828308BB90E4B5B8D9BB283B94FF002
:10DEF000E023D3F82C3D002B0DDB08BD0948FFF7CC
:10DF000079F8E1E7FFF7C8FEE9E7FFF727FFEAE75F
:10DF1000FFF77AFFEBE70448FFF76CF8EDE700BF87
:10DF200000ED00E0C81E0108E01E010830B40546FF
:10DF3000043222F0070CACF14000002203E00D4C4B
:10DF400040F8224001320F2AF9D94CF8201C002257
:10DF50004CF81C2C4CF8182C4CF8142C4CF8102CA9
:10DF60004CF80C3C4CF8085C4FF080734CF8043CC7
:10DF700030BC7047EFBEADDE10B504462C4B1B68BD
:10DF800013B19847002852D0216C2A48FFF732F885
:10DF9000616A2948FFF72EF8A16A2848FFF72AF896
:10DFA000E16A2748FFF726F8216B2648FFF722F899
:10DFB00061682548FFF71EF8A1682448FFF71AF8A2
:10DFC000E1682348FFF716F821692248FFF712F8A5
:10DFD00061692148FFF70EF8A1692048FFF70AF8A8
:10DFE000E1691F48FFF706F8216A1E48FFF702F8AB
:10DFF000616B1D48FEF7FEFFA16B1C48FEF7FAFFA0
:10E00000E16B1B48FEF7F6FF236813F0040F0AD0FC
:10E01000FFF7F2FB01461748FEF7ECFF00F096F819
:10E02000FFF74AFFFEE71448FEF7E4FFF8E710BDEC
:10E03000D4250020F01E0108001F0108101F010850
:10E04000201F0108301F0108401F0108501F010850
:10E05000601F0108701F0108801F0108901F010840
:10E06000A01F0108B01F0108C01F0108D01F010830
:10E07000E01F0108F01F01081020010808B5024840
:10E08000FEF7B8FF002008BD2C20010838B5054672
:10E09000046800E02468AC420BD0A4F114010548E8
:10E0A000FEF7A8FF2368AB42F4D00348FEF7A2FFB7
:10E0B000F0E738BD402001084420010808B5FEF70C
:10E0C000AFFF002008BDF8B500230B61CB684BB350
:10E0D00004460E460B7A3BB30F68B0B10025FDF73E
:10E0E00037F835B914F8043C23F08003327A9342B0
:10E0F0000ED1736800252468A7420DD0013543F87E
:10E10000044BF268AA42F6D107E03C460125E6E757
:10E11000FDF722F8002403E00024FDF71DF8356127
:10E120002046F8BD0024FBE70024F9E7F8B50446D3
:10E130000D4617461E460846FFF738F904302060A2
:10E1400025726760E66000232361F8BD2DE9F04386
:10E15000AFB0082321AA012129A8FFF7E7FF434A0E
:10E1600008214348FEF746FF4FF0080808F1FF3446
:10E17000B8F1000F04D03F48FEF73CFFA046F5E79A
:10E180003D48FEF737FF002765E07822494603A89F
:10E1900000F0DEFD3046FCF7DFFF94F829300093F5
:10E1A000A4F10C03082211463448FEF723FF94F82B
:10E1B000283003F00F03012B09D0022B0BD073B1D1
:10E1C000042B10D0032B12D0E069034614E02C4836
:10E1D000FEF710FFF8E72B48FEF70CFFF4E72A489C
:10E1E000FEF708FFF0E72948FEF704FFECE72848B0
:10E1F000FEF700FFE8E701331A78232AFBD0226AF2
:10E200002169411AC31A1344642000FB03F3606AB6
:10E210000190606B0090B3FBF2F311441D48FEF7D0
:10E22000E9FE01352D9BAB4214DD2EAB03EB8503DC
:10E2300053F8344CA4F10C09FCF78AFF064614F895
:10E24000043C23F080039DF8AC2093429DD0FCF762
:10E2500083FFE6E737B129A93846FFF734FF0746C1
:10E260004546DFE700202FB0BDE8F08348200108D5
:10E27000502001089420010898200108D8200108A6
:10E28000E4200108F0200108FC2001080821010811
:10E2900014210108202101082DE9F04190B0082344
:10E2A00003AA02210BA8FFF741FF344A0821344892
:10E2B000FEF7A0FE4FF0080808F1FF34B8F1000F98
:10E2C00004D03048FEF796FEA046F5E72E48FEF74C
:10E2D00091FE002746E0FCF73FFF01350F9BAB4264
:10E2E0003FDD10AB03EB850353F8346CFCF730FFD4
:10E2F00016F8043C23F080039DF834209342EAD1C1
:10E30000FCF72AFF06F10804B3689C4217D0A6F177
:10E310000C03308A2246002100E001311268944249
:10E32000FBD101910090082211461848FEF762FEC9
:10E330002046FFF7ABFE1648FEF75CFECDE7A6F1E0
:10E340000C03308A2246002100E001311268944219
:10E35000FBD101910090082211460E48FEF74AFEBB
:10E36000BBE737B10BA93846FFF7ADFE0746454678
:10E37000B4E7002010B0BDE8F08100BF48210108DB
:10E380005421010894200108702101088821010806
:10E3900028200108982101082DE9F04192B00823B6
:10E3A00005AA05210DA8FFF7C1FE364A0821364807
:10E3B000FEF720FE4FF0080808F1FF34B8F1000F17
:10E3C00004D03248FEF716FEA046F5E73048FEF7C7
:10E3D00011FE00274AE0FCF7BFFE0136119BB34255
:10E3E00043DD12AB03EB860353F8345CFCF7B0FE5D
:10E3F00015F8043C23F080039DF83C209342EAD1B9
:10E40000FCF7AAFE05F10804AB689C4219D0A5F1FF
:10E410000C03E88AAD8A2246002100E0013112682F
:10E420009442FBD1029101950090082211461948AF
:10E43000FEF7E0FD2046FFF729FE1748FEF7DAFD5C
:10E44000CBE7A5F10C03E88AAD8A2246002100E063
:10E45000013112689442FBD102910195009008228B
:10E4600011460E48FEF7C6FDB7E737B10DA938468D
:10E47000FFF729FE07464646B0E7002012B0BDE888
:10E48000F08100BFA8210108B021010894200108F3
:10E49000D4210108F02101082820010808220108E0
:10E4A000F0B591B0082303AA0A210BA8FFF73EFE9E
:10E4B000294A08212948FEF79DFD082703E028483E
:10E4C000FEF798FD27467C1E002FF8D12548FEF761
:10E4D00091FD00262FE0FCF73FFE01340F9BA34285
:10E4E00028DD10AB03EB840353F8345CFCF730FEFB
:10E4F00015F8043C23F080039DF834209342EAD1C0
:10E50000FCF72AFEEB690193AB690093A5F10C03BC
:10E51000082211461448FEF76DFD15F8033C13F070
:10E52000010F03D01148FEF765FDD6E71048FEF74E
:10E5300061FDD2E736B10BA93046FFF7C4FD0646B0
:10E540003C46CBE7FEF722F901460A48FEF752FDAA
:10E55000002011B0F0BD00BF2022010828220108D0
:10E560009420010850220108742201088C2201081D
:10E5700098220108A822010838B50D48FEF73AFD97
:10E580000C4B1C6800E00C340B4B1B68A3420DD9EC
:10E59000256802220949284601F0DEF80028F2D059
:10E5A000626829460648FEF725FDECE7002038BDE5
:10E5B000C0220108E4250020E8250020D42201081B
:10E5C000D82201080346027862B110B40C7834B145
:10E5D000A24204D1013301311A78002AF6D1181A67
:10E5E00010BC7047001A704770B5154600242346CA
:10E5F00051E08B420BD2002200F8012B013390F83E
:10E6000000C0BCF1200FF4D0BCF1090FF1D0072CF1
:10E6100008D88B4216D2BCF1220F15D045F8240041
:10E6200001342FE01D48FEF7E5FC0026B44206D970
:10E6300055F826101A48FEF7DDFC0136F6E71948B2
:10E64000FEF7D8FC204670BD0130013345F82400A8
:10E65000013401E0013001330278222A09D08B42D3
:10E6600007D25C2AF6D14278222AF3D10130013355
:10E67000F0E78B42E6D2002200F8012B01330AE0DA
:10E68000013001330278202A03D0092A01D08B42BD
:10E69000F6D38B42D6D28B42B1D3D3E7B424010850
:10E6A000D42401082820010838B50F48FEF7A2FC41
:10E6B0000E4B1C6800E00C340D4B1B68A3420DD9B7
:10E6C000256806220B49284601F046F80028F2D1B9
:10E6D0006268A91D0848FEF78DFCECE70748FEF7C5
:10E6E00089FC002038BD00BFD8240108E4250020A3
:10E6F000E8250020F4240108FC2401082820010852
:10E70000F8B507460E460F4B1C6800E00C340E4B64
:10E710001B68A34214D9256806220C49284601F03B
:10E720001BF80028F2D132463946A81D01F014F832
:10E730000028EBD1B31DEB5C002BE7D1A06800E013
:10E740000020F8BDE4250020E8250020F42401087D
:10E7500008B5FFF7FBFC002008BD08B5FEF7D6FCA6
:10E76000002008BDF0B589B004460D4616460021CC
:10E7700000E00131635C202B03D0092B01D0A942BA
:10E78000F7D3A9B12046FFF7BBFF074698B1202277
:10E790000021684600F0EAFA6A4629462046FFF75B
:10E7A00023FF58B16946B8473060002009B0F0BD7A
:10E7B0004FF0FF30FAE74FF0FF30F7E74FF0FF3050
:10E7C000F4E701207047000010B582B0044601E074
:10E7D0000134013921B12378202BF9D0092BF7D04E
:10E7E00011B9002002B010BD01AA2046FFF7BAFF00
:10E7F00080B90198F6E701321378202B01D0002B65
:10E80000F9D10023137021460348FEF7F3FB4FF0C4
:10E81000FF30E7E72246EFE7082501082DE9F84336
:10E82000037833B10646204B1D684FF00008474679
:10E830000AE000210846FFF737FF33E021461B4876
:10E84000FEF7D8FB4F460C35194B1B68AB4221D95C
:10E850002C6806221749204600F07EFF0028F2D1DE
:10E8600006343046FCF7F4FC02462146304600F000
:10E8700073FF0028E7D127B92046FCF7E9FC0746DB
:10E88000A04621464046FFF79DFE81468742D5DCE3
:10E89000B946D3E7B8F1000F04D03A4641463046B6
:10E8A000FEF70EFABDE8F883E425002004250108F0
:10E8B000E8250020F424010808B5FDF75BFA08BD3F
:10E8C000174B1B6893F8213013F0020F09D010B5D5
:10E8D000144B196851B18022134800F051FF1248BF
:10E8E00010BD114B00221A700F487047FFF769FFE7
:10E8F00068B10D4B0D4A92E80300186019710A4C7B
:10E900002046FCF7A5FC0A4B1B882352E7E7064B81
:10E91000084A92E8030018609980090C9971EEE7A3
:10E920007C26002078260020F4250020A025010860
:10E93000B0250108A825010810B504460948FEF7CE
:10E9400059FBFFF73EFF012807D0FFF7B9FF01464B
:10E9500022460548FEF74EFB10BD2046FFF75EFF3E
:10E96000F3E700BF28200108B425010810B5AB4B20
:10E970001A6892F8213043F0010382F82130FFF742
:10E980009FFFFEF737FB04E0A44B1B68012283F8CE
:10E990002020FFF791FF041EFBDB1B2CF4D09F4BC4
:10E9A0001B6893F82020012A40D0022A48D0002C6E
:10E9B000EFD0FF2CEDD0092C00F089807F2C00F0E7
:10E9C0008880082C00F085800D2C00F0C9800A2C6E
:10E9D00000F0C680B3F872204F2A02D90022A3F8B3
:10E9E0007220B3F874C0B3F872209445C0F0E1808F
:10E9F0001A4482F8224093F8213013F0010F40F0BE
:10EA00000781864B1A68B2F8723001339BB2A2F8C4
:10EA10007230B2F874100131A2F874104F2BB8D9CB
:10EA20000023A2F87230A2F87430B2E75B2C03D056
:10EA3000002283F82020BAE7022283F82020A8E7EA
:10EA4000002283F82020412CA3D0422CA1D0442CBA
:10EA500015D0432CABD1B3F87420B3F872108A42AE
:10EA600097D2134493F822106D48FEF7C3FA6B4B0C
:10EA70001A68B2F874300133A2F8743089E7B3F839
:10EA80007430002B85D06748FEF7B4FA634B1A68E0
:10EA9000B2F87430013BA2F874307AE76148FEF7AF
:10EAA000A9FA01345D4B1868B0F87430A342F5DC64
:10EAB0002230FFF741FF594B1C6804F12200FCF79C
:10EAC000C7FB80B2A4F87200A4F8740061E70024C8
:10EAD000E8E7B3F8741000293FF45BAFB3F8722095
:10EAE000013A92B2A3F87220013989B2A3F87410E6
:10EAF0008A420BD84C48FEF77DFA484B1B68B3F8A6
:10EB000072201344002283F8222042E701F1200002
:10EB1000184401F121042344521A991C0230FEF7D3
:10EB2000B0F83E4C2368B3F872201A44002182F8F2
:10EB30002210B3F8742020321344991C3B48FEF78E
:10EB400059FA2368B3F87440344B1B68B3F8723039
:10EB5000A342FFF61EAF3348FEF74CFA0134F3E749
:10EB6000FFF72FFE012811D0FFF7AAFEFEF742FAA9
:10EB70002A4B1C685022002104F1220000F0F6F814
:10EB80000023A4F87230A4F8743002E7234B1B680A
:10EB900093F8213013F0010F07D1204B1868B0F81B
:10EBA00072102230FFF710FEDEE72148FEF722FA4E
:10EBB000F3E70CF1210018440CF120011944A2EBF9
:10EBC0000C0202310230FEF75CF8144B1B68B3F8FC
:10EBD0007420991881F8224093F8211011F0010F48
:10EBE00004D10E4B1B68B3F874400AE02032134482
:10EBF000991C1048FEF7FEF9F3E70A48FEF7FAF908
:10EC00000134064B1B68B3F87230A342F5DCF8E61A
:10EC100021460348FEF7EEF9F3E600BF7C2600200C
:10EC2000C0250108BC250108CC250108C425010820
:10EC30002820010840200108044B1B6893F821207C
:10EC400060F3410283F82120704700BF7C2600203A
:10EC5000024B1860024B1960704700BFE42500208A
:10EC6000E8250020024B1860024B1960704700BF76
:10EC7000EC250020F025002010B582B019491A4873
:10EC8000FFF7E6FF19491A48FFF7ECFF782101204A
:10EC9000FEF72AFB174B1860E0B10A2301931523F6
:10ECA00000934FF48063002213491448FEF7AAFD35
:10ECB000044600231A4612490E480068FDF740FE3C
:10ECC0000120FFF7B9FF5CB12046FEF762FE00208D
:10ECD00002B010BD0B48FEF78DF94FF0FF30F7E79B
:10ECE0000020F5E7481A010888190108481A0108A8
:10ECF000481A01087C2600206DE90008E825010873
:10ED0000F0250108D025010870B500260C4D0D4CEA
:10ED1000641BA410A64209D102F02AFE00260A4D67
:10ED20000A4C641BA410A64205D170BD55F8043BE3
:10ED300098470136EEE755F8043B98470136F2E76D
:10ED40001C2A01081C2A01081C2A0108202A010883
:10ED50000A44914200F1FF3300D1704710B511F819
:10ED6000014B914203F8014FF9D110BD0346024413
:10ED7000934200D1704703F8011BF9E7002B2DE9FE
:10ED8000F0471F46BBBF03F100431F4600232D235E
:10ED900088B01446129A109D1370149BDDF84CA095
:10EDA00023F02008B8F1460F05D0B8F1450F00D187
:10EDB0000135022300E0032307AA049206AACDE945
:10EDC00002A2CDE9003522463B4600F039FEB8F1FB
:10EDD000470F064602D1119BDB0722D5B8F1460F3B
:10EDE00006EB050910D13378302B0AD1002200231D
:10EDF00020463946FCF758FE18B9C5F10105CAF896
:10EE00000050DAF8003099440022002320463946A9
:10EE1000FCF74AFE08B1CDF81C903022079B4B4509
:10EE200007D33046079B159A9B1B136008B0BDE8BB
:10EE3000F087591C07911A70F0E70346F7B50029CF
:10EE400003F8022BB6BF2D222B224942092942701A
:10EE50002BDD0DF10704A4460A2791FBF7F60A46BD
:10EE6000A64607FB1615632A05F13005314604F165
:10EE7000FF340EF8015CF0DC3031AEF1020504F82D
:10EE8000011C2946441C61450AD30DF10902A2EB7D
:10EE90000E02654588BF00221344181A03B0F0BD66
:10EEA00011F8012B04F8012FEDE730233031837086
:10EEB000C170031DF1E700002DE9F04F91B00C4641
:10EEC000DDF8688016461F46054601F05BFD0368C5
:10EED00018460993FCF7BCF900230E93D8F80030CC
:10EEE0000A90073323F0070303F1080294F81890FF
:10EEF000D4F800B0C8F80020D3E90023C4E91223F5
:10EF0000D4E9128A2AF000430B934FF0FF324046B7
:10EF10009C4B0B99FCF7FAFD70BB4FF0FF3240465B
:10EF2000984B0B99FCF7D4FD30BB002200234046E0
:10EF30005146FCF7C3FD10B12D2384F84330924BAA
:10EF40009248B9F1470F94BF9846804603234FF08B
:10EF5000000A23612BF00403236033462146284630
:10EF600000970FAA00F0D4F9013040F090804FF0E4
:10EF7000FF3011B0BDE8F08F42465346404651463F
:10EF8000FCF7C4FD48B1BAF1000FB8BF2D2380488B
:10EF9000B8BF84F843307F4BD3E7636809F0DF01E3
:10EFA0005A1C42D106236360002206920EAACDE9C4
:10EFB00004920DAA4BF4806303920DF13302CDE964
:10EFC00001322360636842460093284653460B9102
:10EFD000FFF7D4FE0B99804647290D9908D1C81C2C
:10EFE00002DB6368994240DDA9F102095FFA89F901
:10EFF000B9F1650F1FD84A46013904F150000D914F
:10F00000FFF71BFF0E9A82461318012A236102DCC8
:10F010002268D20701D5013323619DF83330002BDC
:10F020009BD02D2384F8433097E74729BCD1002B90
:10F03000BAD10123B7E7B9F1660F18D10029636887
:10F040000BDD216113B92268D00702D501330B44CF
:10F0500023614FF0000AA165DFE713B92268D207E8
:10F0600001D50233F4E70123F2E74FF067090E9B65
:10F07000994205DB23682161D807EAD54B1CE7E7F5
:10F080000029CCBF0122C1F102021344E0E723684A
:10F090005A0507D42369424631462846B84701300D
:10F0A0002BD164E7B9F1650F40F2DD80D4E912019C
:10F0B00000220023FCF7F8FC002833D0012331465E
:10F0C0002846354AB84701303FF451AFDDE90D23FA
:10F0D0009A4202DB2368D8070FD5DDE909233146C0
:10F0E0002846B84701303FF442AF4FF0000804F122
:10F0F0001A090E9B013B434509DC23689B0700F17D
:10F100000281E0680F9B9842B8BF184631E701239F
:10F110004A4631462846B84701303FF428AF08F147
:10F120000108E6E70D9B002B38DC01233146284619
:10F13000194AB84701303FF41AAFDDE90D231343F4
:10F1400002D12368D907D8D5DDE9092331462846FD
:10F15000B84701303FF40BAF4FF0000904F11A0A31
:10F160000D9B5B424B4501DC0E9B94E7012352460D
:10F1700031462846B84701303FF4F9AE09F101099C
:10F18000EEE700BFFFFFEF7FFC2501080026010826
:10F1900008260108042601080C2601080E9AA36D12
:10F1A0009A42A8BF1A46002A914637DC4FF0000B5E
:10F1B00029EAE97904F11A02D4F858A0AAEB090364
:10F1C0005B4533DCDDE90D239A423BDB2368DA073C
:10F1D00038D40E9B0D99A3EB0A02A3EB01099145CC
:10F1E000A8BF9146B9F1000F34DC4FF0000829EABE
:10F1F000E97904F11A0ADDE90D239B1AA3EB09034F
:10F2000043457FF77AAF0123524631462846B84737
:10F2100001303FF4ACAE08F10108ECE7134631468B
:10F2200042462846B8470130C0D1A0E60123314606
:10F2300028460B92B84701303FF499AE0B9A0BF178
:10F24000010BB9E73146DDE909232846B84701300B
:10F25000BFD18CE64B463146284608EB0A02B84738
:10F260000130C2D183E60E9A012A01DCDB0737D5D3
:10F270000123424631462846B84701303FF477AE75
:10F28000DDE9092331462846B84701303FF46FAE27
:10F29000D4E9120100220023FCF706FCD8B90E9B2A
:10F2A00008F10102013B31462846B84701300ED132
:10F2B0005DE601234A4631462846B84701303FF40F
:10F2C00056AE08F101080E9B013B4345F1DC534665
:10F2D00004F15002E0E64FF0000804F11A09F2E7E9
:10F2E00001234246DFE701234A4631462846B84714
:10F2F00001303FF43CAE08F10108E3680F995B1A56
:10F300004345F0DCFDE64FF0000804F11909F4E78D
:10F310002DE9F047164699468A680B6907469342DD
:10F32000B8BF1346336091F843200C46DDF82080C7
:10F330000AB1013333602368990642BF3368023350
:10F340003360256815F0060506D104F1190AE36853
:10F3500032689B1AAB4228DC94F84320131E2268C3
:10F3600018BF012392062DD44946384604F14302C2
:10F37000C047013020D02368E56803F00603042B62
:10F3800018BF002532684FF00006A36808BFAD1A09
:10F39000226908BF25EAE5759342C4BF9B1AED18A0
:10F3A0001A34B5421AD1002008E0012352464946DA
:10F3B0003846C047013003D14FF0FF30BDE8F08739
:10F3C0000135C4E73020E11881F843005A1C94F855
:10F3D00045102244023382F84310C5E70123224638
:10F3E00049463846C0470130E6D00136D9E700002B
:10F3F0002DE9FF470F7E9146782F80460C469A46AE
:10F400000C9D01F1430207D8622F0AD8002F00F0AB
:10F41000D980582F00F0A48004F1420584F842708E
:10F420003AE0A7F16303152BF6D801A151F823F0B8
:10F4300089F400089DF4000819F4000819F4000884
:10F4400019F4000819F400089DF4000819F40008E4
:10F4500019F4000819F4000819F40008ABF50008C5
:10F46000CDF400088DF5000819F4000819F400081F
:10F47000CDF5000819F40008CDF4000819F40008CF
:10F4800019F4000895F500082B681A1D1B682A60FE
:10F4900004F1420584F842300123A4E02068296881
:10F4A000060601F104030AD50E682B60002E03DA6C
:10F4B0002D23764284F843300A235E4819E00E6813
:10F4C00010F0400F2B6018BF36B2EFE72B682068B2
:10F4D000191D2960010601D51E6802E04606FBD50C
:10F4E0001E886F2F0CBF08230A235248002184F87E
:10F4F00043106568002DA8BF2168A560A4BF21F056
:10F50000040121600EB9002D4DD01546B6FBF3F174
:10F5100003FB1167C75D05F8017D3746BB420E4608
:10F52000F4D9082B0BD12368DE0708D5236961685D
:10F530009942DEBF302305F8013C05F1FF35521B2F
:10F5400022614B4621464046CDF800A003AAFFF7B2
:10F55000DFFE01304CD14FF0FF3004B0BDE8F08742
:10F56000344881F845702968236851F8046B296094
:10F570001D0614D5DF0744BF43F0200323601EB9E6
:10F58000236823F0200323601023AFE7236843F0B0
:10F59000200323607823284884F84530E3E75906A0
:10F5A00048BFB6B2E6E71546BBE72B682668181DCC
:10F5B0006169286035061B6801D5196002E0700694
:10F5C000FBD51980002315462361BAE72B6800217B
:10F5D0001A1D2A601D686268284601F047FA08B1C2
:10F5E000401B606063682361002384F84330A8E710
:10F5F0002A46494640462369D0470130ABD02368AC
:10F600009B0713D4E068039B9842B8BF1846A4E751
:10F610000123324649464046D04701309BD0013550
:10F62000E36803995B1AAB42F2DCEBE7002504F1D7
:10F630001906F5E70E2601081F2601080FB40A4B2C
:10F6400013B51C6824B1A36913B9204601F0FCF876
:10F6500005AB2046049AA168019301F0AFFE02B009
:10F66000BDE8104004B070474400002070B50E465D
:10F67000054618B183690BB901F0E6F8AB69AC68CF
:10F6800013B9284601F0E0F82C4B9C4220D16C685D
:10F69000636EDB0705D4A389980502D4A06D01F041
:10F6A00076F9A38919071DD52369DBB1013EA3684B
:10F6B00016F8011F013BA36039BB002B38DA224644
:10F6C0000A21284600F070F8013011D00A2511E017
:10F6D0001B4B9C4201D1AC68DAE71A4B9C4208BF35
:10F6E000EC68D5E72146284600F0B0F80028DDD0C8
:10F6F0004FF0FF35636EDA0705D4A3899B0502D46A
:10F70000A06D01F045F9284670BD002B04DAA2690E
:10F710009A4206DC0A2904D023685A1C2260197018
:10F72000C5E72246284600F03FF80130BFD1DFE7A9
:10F730000A2523685A1C22601D70DBE70427010894
:10F7400024270108E4260108024B01461868FFF748
:10F750008DBF00BF44000020034610B572B10139CF
:10F76000841813F8010B11F8012F904201D1A34224
:10F7700001D1801A10BD0028F3D1FAE71046F9E74D
:10F78000034610B5013932B111F8014F013A03F8BF
:10F79000014B002CF7D100211A44934200D110BD37
:10F7A00003F8011BF9E70000F8B50E4614460546BC
:10F7B00018B183690BB901F047F8214B9C422BD15A
:10F7C0006C68A369A360A3891A072FD523696BB35B
:10F7D00023692068F6B2C01A63693746834204DCA5
:10F7E0002146284600F09CFF30BBA3680130013B56
:10F7F000A36023685A1C22601E706369834204D090
:10F80000A389DB0706D50A2E04D12146284600F03D
:10F8100087FF88B93846F8BD0A4B9C4201D1AC68D5
:10F82000CFE7094B9C4208BFEC68CAE7214628464F
:10F8300000F00CF80028CBD04FF0FF37EAE700BF0C
:10F840000427010824270108E4260108324B70B57B
:10F850001D6806460C4625B1AB6913B9284600F071
:10F86000F3FF2E4B9C420FD16C68A389B4F90C2096
:10F8700019072CD4DD0611D40923336042F040036C
:10F880004FF0FF30A3813EE0254B9C4201D1AC6894
:10F89000EBE7244B9C4208BFEC68E6E7580712D51B
:10F8A000616B41B104F14403994202D0304601F04A
:10F8B00081FC00236363A38923F02403A381002335
:10F8C000636023692360A38943F00803A38123694C
:10F8D0004BB9A38903F42073B3F5007F03D021460D
:10F8E000304601F07BF8A089B4F90C2010F0010338
:10F8F0000AD00023A36063695B42A361236943B913
:10F9000010F08000BAD170BD810758BF6369A36051
:10F91000F4E70020F7E700BF4400002004270108B7
:10F9200024270108E42601082DE9F74F03690C6933
:10F930000746A342C0F28280013C00F1140501F1A8
:10F94000140805EB8403019358F8243055F824205B
:10F9500001339A42B2FBF3F64FEA840B08EB8409B9
:10F9600031D34FF0000E4046AC46F24650F8042B1F
:10F9700093B206FB03E3120C4FEA134E9BB206FB55
:10F9800002E2AAEB0303DCF800A04FEA124E1FFAD2
:10F990008AFA5344DCF800A092B2C2EB1A4202EB9E
:10F9A00023429BB243EA024381454FEA224A4CF884
:10F9B000043BDBD255F80B302BB9019B043B9D4235
:10F9C0001A462FD33C61384601F0DCFA002825DBCB
:10F9D00028464FF0000C013658F8041BD0F800E020
:10F9E0008BB2ACEB03031FFA8EF213440A0CC2EB8A
:10F9F0001E4202EB23429BB243EA0243C1454FEA57
:10FA0000224C40F8043BE7D255F8242005EB840350
:10FA100022B9043B9D421A460AD33C61304603B0EA
:10FA2000BDE8F08F1268043B002ACBD1013CC6E749
:10FA30001268043B002AF0D1013CEBE70020EEE71E
:10FA40002DE9F04F16461F46446A99B00546CDE9A8
:10FA50000467DDF8948074B9102000F0FFFF0246BF
:10FA6000686220B9EA21A84BA84801F03DFEC0E930
:10FA700001440460C4606B6A196851B15A6801237B
:10FA800093404A608B60284601F03EF800226B6A82
:10FA90001A603B1EAFBF0023012223F000430593F1
:10FAA000A8BFC8F80030DDF81490994BB8BFC8F86B
:10FAB000002033EA090319D142F20F73249A13602C
:10FAC000C9F31303334300F07F85269B53B9914B51
:10FAD00022E0914B03930833269A1360039819B0E0
:10FAE000BDE8F08F8B4B03930333F5E7DDE9043476
:10FAF000CDE90C34DDE90C0100220023FBF7D4FF33
:10FB0000804658B10123249A1360269B002B00F0F5
:10FB1000588582481860431E0393DFE716AB0193B4
:10FB200017AB00932846DDE90C2301F0D3FAC9F3A3
:10FB30000A548346002C7FD0DDE90C010D9BA4F212
:10FB4000FF34C3F3130343F07F5141F44011CDF868
:10FB50004C800022724BFBF787FB65A3D3E900239F
:10FB6000FBF73AFD64A3D3E90023FBF77FFB0646CE
:10FB700020460F46FBF7C6FC61A3D3E90023FBF741
:10FB80002BFD02460B4630463946FBF76FFB064617
:10FB90000F46FBF7D1FF002282460023304639464C
:10FBA000FBF78CFF48B15046FBF7ACFC32463B46B6
:10FBB000FBF77AFF08B90AF1FF3ABAF1160F58D8E5
:10FBC000DDE90C01574B03EBCA03D3E90023FBF734
:10FBD00075FF00284FD000230AF1FF3A0F93169BC0
:10FBE0001C1B631E099349BFC4F101030023069344
:10FBF000002354BF06930993BAF1000F3DDB099B24
:10FC0000CDF838A05344099300230A93229B092B73
:10FC100000F28C80052BC4BF043B2293229BC8BFFB
:10FC20000024A3F10203D8BF0124032B00F28A8031
:10FC3000DFE803F02D4F4D5BDDE916431C4404F271
:10FC40003243202BC3BFC3F1400304F2124009FA30
:10FC500003F3C3F12003C6BF26FA00F0184306FAE7
:10FC600003F0FBF73FFC0123A1F1F871013C139372
:10FC70006FE70123B2E70F90B1E7069BA3EB0A03FE
:10FC80000693CAF100030A9300230E93BEE70023F4
:10FC90000B93239B002B58DC4FF001094B46CDF80A
:10FCA0002090CDF88C900022686A4260042202F114
:10FCB00014069E4241684ED9284600F0E5FE0390A6
:10FCC00000284CD102464FF4D571174BCCE60123E6
:10FCD000DEE700230B93239B0AEB030909F10103E1
:10FCE000012B0893B8BF0123DDE70123F2E700BF32
:10FCF00061436F63A787D23FB3C8608B288AC63F32
:10FD0000FB799F501344D33F3D2601085426010838
:10FD10000000F07F39260108302601080D26010871
:10FD20000000F83FF0270108D22601080124002333
:10FD30000B9422934FF0FF3900221223CDF820902C
:10FD40002392B0E701230B93F4E7DDF88C904B4648
:10FD5000CDF82090A7E7013141605200A7E76B6A18
:10FD6000039A1A60089B0E2B00F2A880002C00F06A
:10FD7000A580BAF1000F34DD9A4A0AF00F0302EBB6
:10FD8000C3031AF4807FD3E90034CDE910344FEA7D
:10FD90002A1416D0DDE90C01934B0327D3E908237D
:10FDA000FBF744FDCDE9040104F00F048E4E54B975
:10FDB000DDE91023DDE90401FBF738FDCDE904019D
:10FDC00029E00227F2E7E10708D5DDE91001D6E9CD
:10FDD0000023FBF701FCCDE9100101376410083660
:10FDE000E5E700F0A580DDE90C01CAF100047D4BD8
:10FDF00004F00F0203EBC203D3E90023FBF7ECFB93
:10FE000002270023CDE90401774E2411002C40F095
:10FE10008480002BD2D10F9B002B00F08B80DDE97A
:10FE20000434CDE91034DDE9100100226F4BFBF7FB
:10FE300045FE00287ED0089B002B7BD0B9F1000F37
:10FE400038DDDDE910010022694BFBF7C5FB4C46AC
:10FE5000CDE904010AF1FF3801373846FBF752FBC0
:10FE6000DDE90423FBF7B8FB0022624BFBF7FEF948
:10FE7000A1F15076CDE910011196002C5DD1DDE99C
:10FE8000040100225C4BFBF7EFF902460B46CDE97B
:10FE900004233346109AFBF72FFE002840F09C8283
:10FEA000DDE90401109A06F10043FBF707FE002884
:10FEB00040F09082DDE90C34CDE90434179B002B2F
:10FEC000C0F25281BAF10E0F00F34E81454B03EBA5
:10FED000CA03D3E90034CDE90634239B002B80F21A
:10FEE000DB80089B002B00F3D78040F07282DDE9B5
:10FEF00006010022404BFBF76FFBDDE90423FBF713
:10FF0000F1FD089C2646002840F048823123039FDB
:10FF10000AF1010A07F8013B44E2E20705D5D6E9F8
:10FF20000023FBF759FB01230137641008366DE706
:10FF3000022770E7D046089C8FE70399294B21449C
:10FF400012910B9903EBC403DDE9106753E9022317
:10FF5000002955D000202949FBF768FC3B46324672
:10FF6000FBF782F9CDE91001039FDDE90401FBF7FE
:10FF7000E3FD0446FBF7C6FA02460B46DDE9040141
:10FF8000FBF772F902460B463034CDE90423DDE974
:10FF9000102307F8014BFBF791FD002874D1DDE930
:10FFA000042300201149FBF75FF9DDE91023FBF77B
:10FFB00085FD002840F0B780129B9F423FF47AAF46
:10FFC000DDE9100100220A4BFBF706FB0022CDE918
:10FFD0001001DDE90401064BFBF7FEFACDE904014F
:10FFE000C3E700BFF0270108C82701080000F03F61
:10FFF0000000244000001C40000014400000E03FCE
:020000040801F1
:1000000030463946FBF7E8FA129BCDE91001039C14
:100010001493DDE90401FBF78FFD1590FBF772FAED
:1000200002460B46DDE90401FBF71EF9159B064667
:10003000303304F8013B129B0F469C424FF0000204
:1000400024D1DDE91001B04BFBF710F902460B4655
:1000500030463946FBF750FD002863D1DDE9102317
:100060000020A949FBF700F902460B463046394605
:10007000FBF724FD00283FF41DAF149F7B1E149353
:1000800017F8013C302BF8D0C2463BE09F4BFBF702
:10009000A3FACDE90401BCE7039FDDE90489DDE9AA
:1000A000062340464946FBF7C1FBFBF745FD0446E6
:1000B000FBF728FADDE90623FBF78EFA02460B462A
:1000C00040464946FBF7D0F804F1300607F8016BCB
:1000D000039EDDF820C0BE1BB44502460B4636D158
:1000E000FBF7C4F8DDE9062380468946FBF704FDEB
:1000F00058BBDDE9062340464946FBF7D5FC08B16D
:10010000E10722D42846594600F0FEFC00233B704C
:10011000249B0AF101001860269B002B3FF4DEAC03
:100120001F60DBE427463B461F4613F8012D392AA2
:1001300007D1039A9A42F7D13022039908F10108B6
:100140000A701A7801321A709EE7D046EBE7002257
:100150006E4BFBF741FA0022002380468946FBF7ED
:10016000A3FC00289BD0CDE70B9A002A00F0D0809A
:10017000229A012A00F3AE80139A002A00F0A6808A
:1001800003F233430A9C069F069A01211A44069201
:10019000099A28461A44099200F06CFD0646002F81
:1001A0000CDD099B002B09DDBB42A8BF3B46069A2C
:1001B000FF1AD21A0692099AD31A09930A9BF3B12D
:1001C0000B9B002B00F0A880002C10DD314622464E
:1001D000284600F00DFE5A4601460646284600F025
:1001E0005FFD80465946284600F08EFCC3460A9BB8
:1001F0001A1B04D05946284600F0FAFD8346012117
:10020000284600F037FD0E9B0446002B40F3868005
:100210001A460146284600F0EBFD229B0446012BBE
:100220007FDD4FF00008236904EB8303186900F0B9
:10023000D3FCC0F12000099B184410F01F0000F00F
:100240009280C0F12003042B40F38A80C0F11C008F
:10025000069B074403440693099B03440993069BAA
:10026000002B05DD59461A46284600F01BFE834642
:10027000099B002B05DD21461A46284600F012FE98
:1002800004460F9B002B70D02146584600F07AFEA2
:1002900000286ADA002359460A22284600F056FC54
:1002A0000B9B83460AF1FF3A002B00F09481314604
:1002B00000230A22284600F049FCB9F1000F064647
:1002C00000F39380229B022B57DC8EE0169BC3F138
:1002D000360357E7089B5C1E0A9BA342B7BF0A9BE5
:1002E0001C1BE21A0E9BBEBF0A949B180E93089B20
:1002F000B8BF0024002BBBBF069B089A069F9F1A1D
:10030000ACBF089B00233FE70000E03F0000244013
:100310000A9C069F0B9E42E70A9A6BE7229B012BE1
:1003200019DC049BBBB9059BC3F313039BB9059B65
:1003300023F000431B0D1B0583B14FF00108069B02
:1003400001330693099B013309930E9B002B7FF425
:100350006AAF01206FE74FF00008F6E79846F4E730
:100360003FF47DAF18461C3072E7089B002B36DC4B
:10037000229B022B33DDDDF82090B9F1000F0DD167
:1003800021464B460522284600F0E0FB0146044684
:10039000584600F0F7FD00283FF7B8AD239B039FB8
:1003A0006FEA030A4FF000082146284600F0ACFB34
:1003B000002E3FF4A7AEB8F1000F05D0B04503D032
:1003C0004146284600F0A0FB3146284600F09CFB41
:1003D00098E600242646E1E7C246264696E50B9BB2
:1003E000DDF82090002B00F0FD80002F05DD314668
:1003F0003A46284600F056FD0646B8F1000F5CD09C
:100400002846716800F040FB074628B9024640F2D2
:10041000EA217F4BFFF728BB326906F10C0102325B
:1004200092000C30FEF794FC01223946284600F079
:1004300039FDB0460646039B01330893039B4B44AA
:100440000A93049B03F001030993089B2146013B97
:1004500058460493FFF768FA034641463033069046
:1004600058460B9300F08EFD3246814621462846C1
:1004700000F0A4FDC26807460B9B02BB014658462C
:1004800000F080FD02460B9B39462846CDE90B3231
:1004900000F03AFB229B0C9A089F43EA0201099B59
:1004A0000B430B9B0DD1392B29D0B9F1000F01DD86
:1004B000069B3133049A137076E73046B9E7012280
:1004C000E2E7B9F1000F06DB229941EA090909992F
:1004D00059EA010120D1002AECDD594601222846C3
:1004E000089300F0DFFC2146834600F04BFD002816
:1004F000089B02DCDED1DA07DCD5392BD8D13923D1
:10050000049A13703B461F4617F8012C013B392A09
:1005100050D001321A7047E7002A03DD392BEED0A4
:100520000133C7E7089A0A9902F8013C8A422AD0A7
:10053000594600230A22284600F008FBB0458346AE
:100540004FF000034FF00A024146284607D100F061
:10055000FDFA80460646089B0133089375E700F0D4
:10056000F5FA3146804600230A22284600F0EEFACA
:100570000646F0E7B9F1000FCCBF4F4601274FF018
:100580000008039A1744594601222846089300F0B0
:1005900089FC2146834600F0F5FC0028B2DC02D13C
:1005A000089BDB07AED43B461F4613F8012D302ACB
:1005B000FAD0F9E6039A9A42A5D131230AF1010A49
:1005C00079E7144BFFF7A8BA269B002B7FF481AA8A
:1005D000114BFFF7A1BAB9F1000F03DC229B022BEC
:1005E0003FF7CBAE039F21465846FFF79DF9039A8C
:1005F00000F1300307F8013BBA1A9145BADD5946BC
:1006000000230A22284600F0A1FA8346EBE700BF48
:10061000D22601080C260108302601088A89F8B57F
:10062000054610070C4657D44B68002B04DC0B6CB6
:10063000002B01DC0020F8BDE66A002EFAD0002372
:1006400012F480522F682B6032D0606DA3895A0754
:1006500005D56368C01A636B0BB1236CC01A002305
:100660000246E66A2846216AB047431CA38906D1A0
:1006700029681D292CD8294ACA40D60728D5002226
:1006800062602269D904226004D5421C01D12B6822
:1006900003B96065616B2F600029CBD004F144037E
:1006A000994202D0284600F085FD00206063C2E731
:1006B000216A01232846B047411CC7D12B68002B73
:1006C000C4D01D2B01D0162B01D12F60B2E7A38916
:1006D00043F04003A381AEE70F69002FAAD0930730
:1006E00018BF00230E6808BF4B69F61B0F608B60B4
:1006F000002E9FDD33463A462846216AD4F828C0AA
:10070000E047002806DCA3894FF0FF3043F04003A8
:10071000A38190E70744361AEAE700BF01004020B2
:1007200038B50B6905460C4613B90025284638BD77
:1007300018B183690BB900F087F8144B9C421BD1A8
:100740006C68B4F90C30002BEFD0626ED00704D483
:10075000990502D4A06D00F01AF928462146FFF74A
:100760005DFF636E0546DA07E0D4A3899B05DDD4FF
:10077000A06D00F00DF9D9E7054B9C4201D1AC68A2
:10078000DFE7044B9C4208BFEC68DAE70427010866
:1007900024270108E4260108002310B50446C0E917
:1007A0000033C0E90433836081814366C281836181
:1007B000194608225C30FEF7D9FA054B24626362C1
:1007C000044BA362044BE362044B236310BD00BFE0
:1007D0003D1601085F16010897160108BB160108AF
:1007E000014900F0AFB800BF21070108682270B5C9
:1007F0004D1E55430E4605F1740100F043FD0446BD
:1008000040B10021C0E900160C30A06005F168027B
:10081000FEF7ACFA204670BD014800F0B8B800BF42
:1008200081260020014800F0B3B800BF81260020D7
:10083000014800F0ACB800BF82260020014800F05B
:10084000A7B800BF8226002010B50446FFF7F0FFCE
:10085000A3691BB1BDE81040FFF7F0BFC4E9123334
:100860002365134B134A1B68A262A34208BF0123EE
:10087000204608BFA36100F01FF86060204600F02A
:100880001BF8A060204600F017F800220421E06069
:100890006068FFF781FF01220921A068FFF77CFF54
:1008A00002221221E068FFF777FF0123A361D1E75D
:1008B000F8250108E1070108F8B50746FFF7ACFF86
:1008C0001E4B1E68B36913B93046FFF7BDFF4836AB
:1008D000D6E90134013B03D533680BB33668F7E73B
:1008E000B4F90C50D5B9164B04F15800E3606566B5
:1008F00000F04CF8FFF796FF08222946C4E901559D
:10090000C4E904552560A56104F15C00FEF72EFAE8
:10091000C4E90D55C4E912552046F8BD6834D9E73D
:1009200004213846FFF762FF044630600028D5D125
:10093000FFF778FF0C233B60EEE700BFF8250108C6
:100940000100FFFF2DE9F84306468846002700F125
:100950004804D4E90195B9F1010905D52468002CB2
:10096000F7D13846BDE8F883AB89012B07D9B5F933
:100970000E30013303D029463046C047074368355F
:10098000E9E7000000487047980100207047704771
:10099000704770B50E46B1F90E10144600291D4679
:1009A00096B008DA0022B6F90C302A601A0610D484
:1009B0004FF480630EE06A4600F0D6FE0028F1DBBB
:1009C000019A02F47042A2F500535A425A412A6039
:1009D000EEE740230020236016B070BD8B8973B50D
:1009E0009D0706460C4607D504F1470323602361A3
:1009F0000123636102B070BD6A4601ABFFF7C9FF16
:100A000000990546304600F03DFC48B9B4F90C3079
:100A10009A05EFD423F0030343F00203A381E3E735
:100A20000D4BB362A389206043F08003A381009B38
:100A300020616361019B5BB13046B4F90E1000F098
:100A4000A5FE28B1A38923F0030343F00103A3818A
:100A5000A0890543A581CDE7E1070108024B0146C6
:100A6000186800F00FBC00BF44000020034610B51A
:100A7000C9B202449342184601D1002003E0047831
:100A800001338C42F6D110BD70B5466A04460D465E
:100A900076B91020FFF7E2FF0246606220B96621B6
:100AA000174B184800F020FEC0E901660660C660DA
:100AB000666AF36883B1636ADB6853F82500B8B9E6
:100AC000012101FA05F6721D2046920000F05EFB3E
:100AD00060B1C0E901560EE021220421204600F059
